:0400000013EF00F00A
:0600080048824BEF04F0FA
:100018004880E0CF22F022C0E0FF48901000F9EFBE
:1000280003F0306EC2EF00F01C50D8B41EEF00F0A1
:1000380020EF00F058EF00F0360E3024D96EDA6A5F
:10004800000EDA22DF50146E360E2924D96EDA6AD1
:10005800000EDA22DF50DF0B136E360E2A24D96E1B
:10006800DA6A000EDA22DF50FF0A2009126E360E15
:100078002B24D96EDA6A000EDA22DF50FF0A200933
:10008800116E360E2C24D96EDA6A000EDA22DF5091
:10009800DF0B106E360E2D24D96EDA6A000EDA22C6
:1000A800DF500F6ED7EF00F0360E3024D96EDA6AC3
:1000B800000EDA22DF50146E360E2924D96EDA6A61
:1000C800000EDA22DF50136E360E2A24D96EDA6A51
:1000D800000EDA22DF50FF0A126E360E2B24D96E7C
:1000E800DA6A000EDA22DF50FF0A116E360E2C246F
:1000F800D96EDA6A000EDA22DF50106E360E2D2421
:10010800D96EDA6A000EDA22DF500F6ED7EF00F0F0
:10011800360E3024D96EDA6A000EDA22DF50146EF9
:10012800360E2924D96EDA6A000EDA22DF50DF0B88
:10013800136E360E2A24D96EDA6A000EDA22DF50E0
:10014800FF0A126E360E2B24D96EDA6A000EDA22F6
:10015800DF50FF0A2009116E360E2C24D96EDA6A98
:10016800000EDA22DF50106E360E2D24D96EDA6AB0
:10017800000EDA22DF500F6ED7EF00F01D502E6E02
:100188002F6A2F50000AD8B4CCEF00F0D7EF00F058
:100198002E50000AD8B418EF00F0010AD8B48CEF3A
:1001A80000F0D7EF00F016EC04F0120020EE01F09A
:1001B8003150D9263250DA22DF50336E3350236E55
:1001C800246A000E266E0A0E256ED6EC01F0235026
:1001D800016E20EE01F03150D9263250DA22DF507C
:1001E800336E3350236E246A000E266E0A0E256E77
:1001F80092EC02F02350026E20EE02F03150D92624
:100208003250DA22DF50336E3350236E246A000EE8
:10021800266E0A0E256ED6EC01F02350036E20EEF2
:1002280002F03150D9263250DA22DF50336E335083
:10023800236E246A000E266E0A0E256E92EC02F0DA
:100248002350046E20EE03F03150D9263250DA22C2
:10025800DF50336E3350236E246A000E266E0A0E6A
:10026800256ED6EC01F02350056E20EE03F03150D8
:10027800D9263250DA22DF50336E3350236E246A87
:10028800000E266E0A0E256E92EC02F02350066EC2
:1002980002C029F003C02AF004C02BF005C02CF0DE
:1002A80006C02DF0015015EC00F0120020EE02F00F
:1002B8003150D9263250DA22DF50336E3350236E54
:1002C800246A000E266E0A0E256ED6EC01F0235025
:1002D800086E20EE02F03150D9263250DA22DF5073
:1002E800336E3350236E246A000E266E0A0E256E76
:1002F80092EC02F02350096E20EE01F03150D9261D
:100308003250DA22DF50336E3350236E246A000EE7
:10031800266E0A0E256ED6EC01F023500A6E20EEEA
:1003280001F03150D9263250DA22DF50336E335083
:10033800236E246A000E266E0A0E256E92EC02F0D9
:1003480023500B6E31C0D9FF32C0DAFFDF50336E55
:100358003350236E246A000E266E0A0E256ED6ECE4
:1003680001F023500C6E31C0D9FF32C0DAFFDF50E4
:10037800336E3350236E246A000E266E0A0E256EE5
:1003880092EC02F023500D6E09C029F00AC02AF041
:100398000BC02BF00CC02CF00DC02DF0085015EC44
:1003A80000F01200000E286E26BEDFEF01F0DDEF30
:1003B80001F0E5EF01F0256C261ED8B0262A010EC3
:1003C800286E24BEECEF01F0EAEF01F0F2EF01F045
:1003D800236C241ED8B0242A010E281A000E2A6E77
:1003E800000E296E25502610D8B4FDEF01F0FFEF5E
:1003F80001F027EF02F0010E276E07EF02F0D89008
:1004080025362636272A26AE0CEF02F00EEF02F02C
:1004180003EF02F0D89029362A362550235C26505F
:100428002458D8A01AEF02F01CEF02F021EF02F0D6
:100438002550235E2650245A2980D890263225320A
:10044800272E0EEF02F02850D8B42DEF02F02FEF30
:1004580002F033EF02F0296C2A1ED8B02A2A29C0EC
:1004680023F02AC024F012001E0E246E000E256E02
:10047800000E276E030E266E000EEAEC02F01EC078
:1004880016F016C02DF00F0E2D1616380F0B070B91
:100498000A0DF3502D241E6E1FC016F016C02DF045
:1004A8000F0E2D1616380F0B0A0DF3502D241F6E44
:1004B80020AC61EF02F063EF02F07FEF02F020AAB8
:1004C80068EF02F06AEF02F06EEF02F0010E216EA3
:1004D80070EF02F0000E216E20C016F016C02DF04D
:1004E8000F0E2D1616380F0B010B0A0DF3502D2485
:1004F800206E8DEF02F020C016F016C02DF00F0E02
:100508002D1616380F0B0A0DF3502D24206E020EEF
:10051800216E1E0E2B6E000E2C6E1200000E286E21
:1005280024BE9BEF02F099EF02F0A1EF02F0236CDA
:10053800241ED8B0242A010E286E26BEA8EF02F089
:10054800A6EF02F0ACEF02F0256C261ED8B0262AE2
:1005580025502610D8B4B3EF02F0B5EF02F0D9EF6A
:1005680002F0010E276EBDEF02F0D8902536263630
:10057800272A26AEC2EF02F0C4EF02F0B9EF02F06C
:100588002550235C26502458D8A0CDEF02F0CFEF99
:1005980002F0D3EF02F02550235E2650245AD8905B
:1005A80026322532272EC4EF02F02850D8B4DFEFC8
:1005B80002F0E1EF02F0E5EF02F0236C241ED8B060
:1005C800242A23C023F024C024F01200286EE7EC6C
:1005D80004F0D00E62EC04F0E806D8B4F6EF02F0AE
:1005E800F8EF02F0EBEF02F0285062EC04F0F1ECC7
:1005F80004F0D10E62EC04F0D2EC04F024C0D9FF70
:1006080025C0DAFFDF6E000E2A6E010E296E1AEF82
:1006180003F0C7EC04F029502424D96E2A50252071
:10062800DA6ED2EC04F0DF6E294A2A2A2650295CB9
:1006380027502A58D8A023EF03F025EF03F00DEF39
:1006480003F0BCEC04F0DDEC04F012004DEF03F015
:10065800172A090E176433EF03F035EF03F039EF6B
:1006680003F0000E176E010E1C1A38EC02F02BC0B6
:1006780031F02CC032F05AEC01F062EF03F099EC43
:1006880003F02BC031F02CC032F0DAEC00F062EF4E
:1006980003F01D50346E356A3550000AD8B457EF50
:1006A80003F062EF03F03450000AD8B42CEF03F0E3
:1006B800010AD8B443EF03F062EF03F01200192ADD
:1006C800090E19646AEF03F06CEF03F098EF03F07A
:1006D800000E196E182A3B0E186475EF03F077EFB9
:1006E80003F083EF03F0000E186E83EF03F0000EA3
:1006F8001D6E98EF03F0010E1D6E98EF03F0185071
:10070800236E246A2450000AD8B48DEF03F098EFC2
:1007180003F02350000AD8B47BEF03F0310AD8B4B1
:100728007FEF03F098EF03F012001E0E246E000E08
:10073800256E000E276E040E266E030EEAEC02F0FC
:100748001FC016F016C02DF00F0E2D1616380F0B01
:100758000A0DF3502D241F6E20C016F016C02DF080
:100768000F0E2D1616380F0B0A0DF3502D24206E80
:1007780021C016F016C02DF00F0E2D1616380F0BCF
:100788000A0DF3502D24216E1E0E2B6E000E2C6EBA
:100798001200266E000E276E27C023F0800E246EEE
:1007A800000E256E232ADCEF03F02534253224328F
:1007B800232ED9EF03F0245026140009D8B4E7EF0C
:1007C80003F0E9EF03F0ECEF03F08A80EDEF03F0BC
:1007D8008A908A848A94272A070E2764F6EF03F002
:1007E800F8EF03F0D0EF03F01200F60EF66E090EE4
:1007F800F76E000EF86E00EE36F010EE12F00900FB
:10080800F5CFEEFFE550E150FAE100EE01F0210EE0
:10081800EE6AE806FDE148904892000EF86E000185
:100828000DEF05F0000E286E24EF04F00F0E2824BB
:10083800D96EDA6A000EDA22DF50CDEC03F0282AEE
:100848002850800A7A0FD8A02CEF04F02EEF04F07D
:100858001AEF04F08A828A9212001B04D8A437EF98
:1008680004F039EF04F04AEF04F01A2A630E1A6410
:1008780040EF04F042EF04F048EF04F0000E1A6E67
:1008880063EC03F02AEC03F0000E1B6E1200F2AAD0
:1008980050EF04F052EF04F060EF04F0F2A457EFC9
:1008A80004F059EF04F060EF04F0F294010E1B6EAF
:1008B800F80ED76E300ED66E48921100236E23C004
:1008C800C9FF9EA66AEF04F06CEF04F065EF04F030
:1008D8009E96C5BC72EF04F075EF04F0010E76EF3A
:1008E80004F0000E12008BEC04F019EC05F09FECFC
:1008F80004F004EC05F0AEEC04F0340E316EF20EA8
:10090800E82EFED7312EFCD715EC05F01200000EAC
:100918000F01386F000E396F000E3A6F000E926E9D
:10092800000E936E000E946E000E806E000E816EA7
:10093800000E826E1200D58ED59CD59AD598D59684
:10094800F80ED516F80ED76E300ED66EF294F28ADF
:10095800F1841200100E296E100E2A6E100E2B6EE6
:10096800100E2C6E100E2D6E100E15EC00F01200ED
:10097800C58AC5889EA6C3EF04F0C5EF04F0BEEF94
:1009880004F09E961200C59AC5889EA6CEEF04F084
:10099800D0EF04F0C9EF04F09E961200C5869EA61B
:1009A800D8EF04F0DAEF04F0D3EF04F09E96C950C4
:1009B8001200C5849EA6E3EF04F0E5EF04F0DEEF35
:1009C80004F09E961200C5809EA6EDEF04F0EFEFAE
:1009D80004F0E8EF04F09E961200C5829EA6F7EF99
:1009E80004F0F9EF04F0F2EF04F09E961200A0F67E
:1009F8006162362A28E620222438A970292DFF06AC
:100A080094889486800EC76E280EC66E270EC86E10
:100A1800120077EC04F031EC04F00FEF05F013EF5F
:100A280000F0D08EF28CF28E1200700ED3121200EB
:020000040020DA
:08000000FFFFFFFFFFFFFFFF00
:020000040030CA
:0E000000FF28193CFFB581FF0FC00FE00F4035
:00000001FF
