:0400000013EF00F00A
:06000800398200EF03F055
:100018003980E0CF29F029C0E0FF39901000C8EFFF
:1000280002F0356E84EF00F027C009F0170E352472
:10003800D96EDA6A000EDA22DF50086EA2EF00F0FD
:10004800170E3524D96EDA6A000EDA22DF50096EEF
:10005800170E3024D96EDA6A000EDA22DF50086EE5
:10006800A2EF00F01250D8B43CEF00F03EEF00F0E1
:1000780062EF00F0170E3524D96EDA6A000EDA2224
:10008800DF500B6E170E3024D96EDA6A000EDA22B2
:10009800DF50DF0B0A6E170E3124D96EDA6A000EB4
:1000A800DA22DF50DF0B096E170E3224D96EDA6AB6
:1000B800000EDA22DF50086EA2EF00F0170E35248A
:1000C800D96EDA6A000EDA22DF500B6E170E302472
:1000D800D96EDA6A000EDA22DF500A6E170E312462
:1000E800D96EDA6A000EDA22DF50096E170E322452
:1000F800D96EDA6A000EDA22DF50086EA2EF00F03D
:10010800040E336E000E346E3450000AD8B48FEFEC
:1001180000F0A2EF00F03350010AD8B418EF00F055
:10012800030AD8B424EF00F0010AD8B4A2EF00F013
:10013800070AD8B436EF00F0A2EF00F0E5EC02F0C1
:10014800120020EE02F03650D9263750DA22DF505E
:10015800386E38502A6E2B6A000E2D6E0A0E2C6EE1
:100168001DEC01F02A50016E20EE02F03650D9261F
:100178003750DA22DF50386E38502A6E2B6A000E5C
:100188002D6E0A0E2C6ED9EC01F02A50026E20EE6C
:1001980001F03650D9263750DA22DF50386E385001
:1001A8002A6E2B6A000E2D6E0A0E2C6E1DEC01F0C5
:1001B8002A50036E20EE01F03650D9263750DA2245
:1001C800DF50386E38502A6E2B6A000E2D6E0A0EDC
:1001D8002C6ED9EC01F02A50046E36C0D9FF37C016
:1001E800DAFFDF50386E38502A6E2B6A000E2D6EFB
:1001F8000A0E2C6E1DEC01F02A50056E36C0D9FF90
:1002080037C0DAFFDF50386E38502A6E2B6A000E7E
:100218002D6E0A0E2C6ED9EC01F02A50066E02C023
:1002280030F003C031F004C032F0015015EC00F09A
:100238001200000E2F6E2DBE26EF01F024EF01F004
:100248002CEF01F02C6C2D1ED8B02D2A010E2F6E2C
:100258002BBE33EF01F031EF01F039EF01F02A6CDA
:100268002B1ED8B02B2A010E2F1A000E316E000E4D
:10027800306E2C502D10D8B444EF01F046EF01F049
:100288006EEF01F0010E2E6E4EEF01F0D8902C3675
:100298002D362E2A2DAE53EF01F055EF01F04AEF1F
:1002A80001F0D890303631362C502A5C2D502B581E
:1002B800D8A061EF01F063EF01F068EF01F02C5076
:1002C8002A5E2D502B5A3080D8902D322C322E2E6B
:1002D80055EF01F02F50D8B474EF01F076EF01F02C
:1002E8007AEF01F0306C311ED8B0312A30C02AF0D4
:1002F80031C02BF01200130E2B6E000E2C6E000E68
:100308002E6E030E2D6E000E31EC02F013C00EF0AF
:100318000EC034F00F0E34160E380F0B070B0A0DF3
:10032800F3503424136E14C00EF00EC034F00F0EC8
:1003380034160E380F0B0A0DF3503424146E15AC16
:10034800A8EF01F0AAEF01F0C6EF01F015AAAFEF90
:1003580001F0B1EF01F0B5EF01F0010E166EB7EF45
:1003680001F0000E166E15C00EF00EC034F00F0E20
:1003780034160E380F0B010B0A0DF3503424156E8A
:10038800D4EF01F015C00EF00EC034F00F0E341685
:100398000E380F0B0A0DF3503424156E020E166E2C
:1003A800130E326E000E336E1200000E2F6E2BBE2F
:1003B800E2EF01F0E0EF01F0E8EF01F02A6C2B1E0C
:1003C800D8B02B2A010E2F6E2DBEEFEF01F0EDEF06
:1003D80001F0F3EF01F02C6C2D1ED8B02D2A2C5013
:1003E8002D10D8B4FAEF01F0FCEF01F020EF02F085
:1003F800010E2E6E04EF02F0D8902C362D362E2AE0
:100408002DAE09EF02F00BEF02F000EF02F02C50D6
:100418002A5C2D502B58D8A014EF02F016EF02F0EA
:100428001AEF02F02C502A5E2D502B5AD8902D32FC
:100438002C322E2E0BEF02F02F50D8B426EF02F0FC
:1004480028EF02F02CEF02F02A6C2B1ED8B02B2AD2
:100458002AC02AF02BC02BF012002F6E8EEC03F06E
:10046800D00E17EC03F0E806D8B43DEF02F03FEFEA
:1004780002F032EF02F02F5017EC03F098EC03F083
:10048800D10E17EC03F079EC03F02BC0D9FF2CC088
:10049800DAFFDF6E000E316E010E306E61EF02F092
:1004A8006EEC03F030502B24D96E31502C20DA6ECC
:1004B80079EC03F0DF6E304A312A2D50305C2E5033
:1004C8003158D8A06AEF02F06CEF02F054EF02F056
:1004D80063EC03F084EC03F012002D6E000E2E6E18
:1004E8002EC02AF0800E2B6E000E2C6E2A2A80EF6A
:1004F80002F02C342C322B322A2E7DEF02F02B50B6
:100508002D140009D8B48BEF02F08DEF02F090EFB4
:1005180002F08A8091EF02F08A908A848A942E2AC7
:10052800070E2E649AEF02F09CEF02F074EF02F0CF
:1005380012001104D8A4A3EF02F0A5EF02F0C7EF50
:1005480002F0102A630E1064ACEF02F0AEEF02F076
:10055800C5EF02F0000E106E0F2A050E0F64B7EFFC
:1005680002F0B9EF02F0BDEF02F0000E0F6E010EBF
:10057800121A7FEC01F032C036F033C037F0A5EC28
:1005880000F0000E116E1200580EF66E070EF76E90
:10059800000EF86E00EE17F010EE12F00900F5CF1D
:1005A800EEFFE550E150FAE100EE01F0160EEE6ABA
:1005B800E806FDE139903992000EF86E0001BEEFB1
:1005C80003F0000E2F6EF3EF02F0080E2F24D96E01
:1005D800DA6A000EDA22DF5071EC02F02F2A2F506F
:1005E800800A7C0FD8A0FBEF02F0FDEF02F0E9EFE4
:1005F80002F08A828A921200F2AA05EF03F007EF4E
:1006080003F015EF03F0F2A40CEF03F00EEF03F084
:1006180015EF03F0F294010E116EF80ED76E300E3E
:10062800D66E399211002A6E2AC0C9FF9EA61FEF06
:1006380003F021EF03F01AEF03F09E96C5BC27EFF5
:1006480003F02AEF03F0010E2BEF03F0000E120067
:1006580040EC03F0CAEC03F054EC03F0B5EC03F003
:10066800A2EC03F0340E366EF20EE82EFED7362ECC
:10067800FCD7C6EC03F01200000E0F01386F000E15
:10068800396F000E3A6F000E926E000E936E000ED8
:10069800946E000E806E000E816E000E826E120047
:1006A800D58ED59CD59AD598D596F80ED516F80E30
:1006B800D76E300ED66EF294F28AF1841200C58A93
:1006C800C5889EA66AEF03F06CEF03F065EF03F0B0
:1006D8009E961200C59AC5889EA675EF03F077EF1F
:1006E80003F070EF03F09E961200C5869EA67FEF7A
:1006F80003F081EF03F07AEF03F09E96C9501200E1
:10070800C5849EA68AEF03F08CEF03F085EF03F013
:100718009E961200C5809EA694EF03F096EF03F014
:100728008FEF03F09E961200C5829EA69EEF03F0FF
:10073800A0EF03F099EF03F09E961200100E306EB2
:10074800100E316E100E326E100E15EC00F0120005
:10075800A0F66162362A28E620222438A970292DBD
:10076800FF0494889486800EC76E280EC66E270EE6
:10077800C86E12002CEC03F09DEC02F0C0EF03F001
:1007880013EF00F0D08EF28CF28E1200700ED3129E
:0207980012004D
:020000040020DA
:08000000FFFFFFFFFFFFFFFF00
:020000040030CA
:0E000000FF28193CFFB581FF0FC00FE00F4035
:00000001FF
